{"abi":[{"type":"function","name":"payBatchConfidential","inputs":[{"name":"recipients","type":"address[]","internalType":"address[]"},{"name":"amounts","type":"uint256[]","internalType":"uint256[]"},{"name":"batchCommitment","type":"bytes32","internalType":"bytes32"},{"name":"batchId","type":"bytes32","internalType":"bytes32"}],"outputs":[],"stateMutability":"payable"},{"type":"function","name":"payBatchOpen","inputs":[{"name":"recipients","type":"address[]","internalType":"address[]"},{"name":"amounts","type":"uint256[]","internalType":"uint256[]"},{"name":"batchId","type":"bytes32","internalType":"bytes32"}],"outputs":[],"stateMutability":"payable"},{"type":"event","name":"BatchSettled","inputs":[{"name":"payer","type":"address","indexed":true,"internalType":"address"},{"name":"batchId","type":"bytes32","indexed":true,"internalType":"bytes32"},{"name":"batchCommitment","type":"bytes32","indexed":true,"internalType":"bytes32"},{"name":"count","type":"uint256","indexed":false,"internalType":"uint256"},{"name":"totalAmount","type":"uint256","indexed":false,"internalType":"uint256"},{"name":"confidential","type":"bool","indexed":false,"internalType":"bool"}],"anonymous":false},{"type":"error","name":"AmountMismatch","inputs":[]},{"type":"error","name":"LengthMismatch","inputs":[]},{"type":"error","name":"ZeroRecipients","inputs":[]}],"bytecode":{"object":"0x6080604052348015600e575f5ffd5b506107838061001c5f395ff3fe608060405260043610610028575f3560e01c8063d7126fd91461002c578063dad373ea14610048575b5f5ffd5b610046600480360381019061004191906103e7565b610064565b005b610062600480360381019061005d919061048a565b61007c565b005b6100748686868685876001610094565b505050505050565b61008d85858585855f5f1b5f610094565b5050505050565b5f87879050036100d0576040517fd918d41900000000000000000000000000000000000000000000000000000000815260040160405180910390fd5b84849050878790501461010f576040517fff633a3800000000000000000000000000000000000000000000000000000000815260040160405180910390fd5b5f5f5f90505b88889050811015610154578686828181106101335761013261051b565b5b9050602002013582610145919061057e565b91508080600101915050610115565b5080341461018e576040517f55e97b0d00000000000000000000000000000000000000000000000000000000815260040160405180910390fd5b5f5f90505b88889050811015610294575f8989838181106101b2576101b161051b565b5b90506020020160208101906101c7919061060b565b73ffffffffffffffffffffffffffffffffffffffff168888848181106101f0576101ef61051b565b5b9050602002013560405161020390610663565b5f6040518083038185875af1925050503d805f811461023d576040519150601f19603f3d011682016040523d82523d5f602084013e610242565b606091505b5050905080610286576040517f08c379a000000000000000000000000000000000000000000000000000000000815260040161027d906106d1565b60405180910390fd5b508080600101915050610193565b5082843373ffffffffffffffffffffffffffffffffffffffff167fa6c54a84655307d5350dc7c26a51ffd80890a919ac56d0abbe274675828329a68b8b905085876040516102e493929190610718565b60405180910390a45050505050505050565b5f5ffd5b5f5ffd5b5f5ffd5b5f5ffd5b5f5ffd5b5f5f83601f84011261031f5761031e6102fe565b5b8235905067ffffffffffffffff81111561033c5761033b610302565b5b60208301915083602082028301111561035857610357610306565b5b9250929050565b5f5f83601f840112610374576103736102fe565b5b8235905067ffffffffffffffff81111561039157610390610302565b5b6020830191508360208202830111156103ad576103ac610306565b5b9250929050565b5f819050919050565b6103c6816103b4565b81146103d0575f5ffd5b50565b5f813590506103e1816103bd565b92915050565b5f5f5f5f5f5f60808789031215610401576104006102f6565b5b5f87013567ffffffffffffffff81111561041e5761041d6102fa565b5b61042a89828a0161030a565b9650965050602087013567ffffffffffffffff81111561044d5761044c6102fa565b5b61045989828a0161035f565b9450945050604061046c89828a016103d3565b925050606061047d89828a016103d3565b9150509295509295509295565b5f5f5f5f5f606086880312156104a3576104a26102f6565b5b5f86013567ffffffffffffffff8111156104c0576104bf6102fa565b5b6104cc8882890161030a565b9550955050602086013567ffffffffffffffff8111156104ef576104ee6102fa565b5b6104fb8882890161035f565b9350935050604061050e888289016103d3565b9150509295509295909350565b7f4e487b71000000000000000000000000000000000000000000000000000000005f52603260045260245ffd5b5f819050919050565b7f4e487b71000000000000000000000000000000000000000000000000000000005f52601160045260245ffd5b5f61058882610548565b915061059383610548565b92508282019050808211156105ab576105aa610551565b5b92915050565b5f73ffffffffffffffffffffffffffffffffffffffff82169050919050565b5f6105da826105b1565b9050919050565b6105ea816105d0565b81146105f4575f5ffd5b50565b5f81359050610605816105e1565b92915050565b5f602082840312156106205761061f6102f6565b5b5f61062d848285016105f7565b91505092915050565b5f81905092915050565b50565b5f61064e5f83610636565b915061065982610640565b5f82019050919050565b5f61066d82610643565b9150819050919050565b5f82825260208201905092915050565b7f5452414e534645525f4641494c454400000000000000000000000000000000005f82015250565b5f6106bb600f83610677565b91506106c682610687565b602082019050919050565b5f6020820190508181035f8301526106e8816106af565b9050919050565b6106f881610548565b82525050565b5f8115159050919050565b610712816106fe565b82525050565b5f60608201905061072b5f8301866106ef565b61073860208301856106ef565b6107456040830184610709565b94935050505056fea2646970667358221220899415df6811baae048bbe0507931633c86858605138649c9ad4736dcba2ccdc64736f6c63430008210033","linkReferences":{}},"methodIdentifiers":{"payBatchConfidential(address[],uint256[],bytes32,bytes32)":"d7126fd9","payBatchOpen(address[],uint256[],bytes32)":"dad373ea"},"id":0}