{"abi":[{"type":"function","name":"payConfidential","inputs":[{"name":"recipient","type":"address","internalType":"address"},{"name":"commitmentId","type":"bytes32","internalType":"bytes32"},{"name":"externalId","type":"bytes32","internalType":"bytes32"}],"outputs":[],"stateMutability":"payable"},{"type":"function","name":"payOpen","inputs":[{"name":"recipient","type":"address","internalType":"address"},{"name":"externalId","type":"bytes32","internalType":"bytes32"}],"outputs":[],"stateMutability":"payable"},{"type":"event","name":"PaymentSettled","inputs":[{"name":"payer","type":"address","indexed":true,"internalType":"address"},{"name":"recipient","type":"address","indexed":true,"internalType":"address"},{"name":"amount","type":"uint256","indexed":false,"internalType":"uint256"},{"name":"confidential","type":"bool","indexed":false,"internalType":"bool"},{"name":"commitmentId","type":"bytes32","indexed":true,"internalType":"bytes32"},{"name":"externalId","type":"bytes32","indexed":false,"internalType":"bytes32"}],"anonymous":false},{"type":"error","name":"ZeroAddress","inputs":[]},{"type":"error","name":"ZeroValue","inputs":[]}],"bytecode":{"object":"0x6080604052348015600e575f5ffd5b506106568061001c5f395ff3fe608060405260043610610028575f3560e01c806363d26a421461002c578063951827f714610048575b5f5ffd5b61004660048036038101906100419190610463565b610064565b005b610062600480360381019061005d91906104a1565b61021b565b005b5f340361009d576040517f7c946ed700000000000000000000000000000000000000000000000000000000815260040160405180910390fd5b5f73ffffffffffffffffffffffffffffffffffffffff168273ffffffffffffffffffffffffffffffffffffffff1603610102576040517fd92e233d00000000000000000000000000000000000000000000000000000000815260040160405180910390fd5b5f8273ffffffffffffffffffffffffffffffffffffffff16346040516101279061051e565b5f6040518083038185875af1925050503d805f8114610161576040519150601f19603f3d011682016040523d82523d5f602084013e610166565b606091505b50509050806101aa576040517f08c379a00000000000000000000000000000000000000000000000000000000081526004016101a19061058c565b60405180910390fd5b5f5f1b8373ffffffffffffffffffffffffffffffffffffffff163373ffffffffffffffffffffffffffffffffffffffff167ff207ac7ee73d98a79213209d791759a28f6912dcfdfdf7fe32ed15212dccdd08345f8760405161020e939291906105eb565b60405180910390a4505050565b5f3403610254576040517f7c946ed700000000000000000000000000000000000000000000000000000000815260040160405180910390fd5b5f73ffffffffffffffffffffffffffffffffffffffff168373ffffffffffffffffffffffffffffffffffffffff16036102b9576040517fd92e233d00000000000000000000000000000000000000000000000000000000815260040160405180910390fd5b5f8373ffffffffffffffffffffffffffffffffffffffff16346040516102de9061051e565b5f6040518083038185875af1925050503d805f8114610318576040519150601f19603f3d011682016040523d82523d5f602084013e61031d565b606091505b5050905080610361576040517f08c379a00000000000000000000000000000000000000000000000000000000081526004016103589061058c565b60405180910390fd5b828473ffffffffffffffffffffffffffffffffffffffff163373ffffffffffffffffffffffffffffffffffffffff167ff207ac7ee73d98a79213209d791759a28f6912dcfdfdf7fe32ed15212dccdd08346001876040516103c4939291906105eb565b60405180910390a450505050565b5f5ffd5b5f73ffffffffffffffffffffffffffffffffffffffff82169050919050565b5f6103ff826103d6565b9050919050565b61040f816103f5565b8114610419575f5ffd5b50565b5f8135905061042a81610406565b92915050565b5f819050919050565b61044281610430565b811461044c575f5ffd5b50565b5f8135905061045d81610439565b92915050565b5f5f60408385031215610479576104786103d2565b5b5f6104868582860161041c565b92505060206104978582860161044f565b9150509250929050565b5f5f5f606084860312156104b8576104b76103d2565b5b5f6104c58682870161041c565b93505060206104d68682870161044f565b92505060406104e78682870161044f565b9150509250925092565b5f81905092915050565b50565b5f6105095f836104f1565b9150610514826104fb565b5f82019050919050565b5f610528826104fe565b9150819050919050565b5f82825260208201905092915050565b7f5452414e534645525f4641494c454400000000000000000000000000000000005f82015250565b5f610576600f83610532565b915061058182610542565b602082019050919050565b5f6020820190508181035f8301526105a38161056a565b9050919050565b5f819050919050565b6105bc816105aa565b82525050565b5f8115159050919050565b6105d6816105c2565b82525050565b6105e581610430565b82525050565b5f6060820190506105fe5f8301866105b3565b61060b60208301856105cd565b61061860408301846105dc565b94935050505056fea26469706673582212204d734af82abe3defb8c176bc62759a8af62ae8350d9afaaf35438941fc2307bf64736f6c63430008210033","linkReferences":{}},"methodIdentifiers":{"payConfidential(address,bytes32,bytes32)":"951827f7","payOpen(address,bytes32)":"63d26a42"},"id":1}